:100000000C942A000C943F000C943F000C943F0089
:100010000C943F000C943F000C943F000C943F0064
:100020000C943F000C943F000C943F000C943F0054
:100030000C943F000C943F000C943F000C943F0044
:100040000C943F000C943F000C943F000C943F0034
:100050000C943F0011241FBECFE5D8E0DEBFCDBF1A
:1000600010E0A0E6B0E0EAEBF1E002C005900D92EE
:10007000A237B107D9F70E94C3000C94DB000C949F
:1000800000008FE08ABB8FEF8BBB089580EF8BBBA6
:1000900099B381E0903F09F080E0089580EF8BBB39
:1000A00029B3207F203F81F087E893E10197F1F7A2
:1000B00000C0000049B3407F50E030E081E04217CB
:1000C000530719F080E0089580E00895CF9340E051
:1000D00050E0CFEFE1E0F0E0CBBB9BB3BA019F0172
:1000E000042E02C0220F331F0A94E2F7822F80955C
:1000F00089238BBB8DEE92E00197F1F700C00000E1
:10010000CC9932C00CC089B3D90190E0022E02C054
:10011000959587950A94E2F780FD0DC002C0A4E092
:10012000B0E0660F771F660F771FA60FB71FA45AA0
:10013000BF4F8C9122C083EC99E00197F1F700C08A
:1001400000002F5F3F4F28303105E9F683EC99E03E
:100150000197F1F700C000004F5F5F4F4430510539
:1001600009F0BACF8AE709C083EC99E00197F1F76B
:1001700000C0000025E030E0C6CFCF9108958FEF9A
:1001800084BB85BB08950E94BF000E9441000E946D
:100190004E008823E1F30E9466008093700085BBC7
:1001A00087E893E10197F1F700C000000E94460044
:0A01B0008823E1F3ECCFF894FFCFB1
:1001BA003738392F3435362A3132332D43303D2BF7
:0201CA00300003
:00000001FF
